:100000000C942E010C945F010C945F010C945F0121
:100010000C945F010C945F010C945F010C945F01E0
:100020000C945F010C945F010C945F010C945F01D0
:100030000C945F010C945F010C945F010C945F01C0
:100040000C945F010C945F010C945F010C945F01B0
:100050000C945F010C945F010C945F010C94790582
:100060000C945F010C94ED050C94C3050C945F0196
:100070000C945F010C945F010C945F010C945F0180
:100080000C945F010C945F010C945F010C945F0170
:100090000C945F010C945F010C945F010C945F0160
:1000A0000C945F010C945F010C945F010C945F0150
:1000B0000C945F010C945F010C945F010C945F0140
:1000C0000C945F010C945F010C945F010C945F0130
:1000D0000C945F010C945F010C945F010C945F0120
:1000E0000C945F010C94E6010C94CB010C94D301A9
:1000F0000C94BC020C94B4030C944A050C941603A3
:100100000C94B5030C9423060C94D0020C94AD020D
:100110000C94CF010C94F8010C9402020C94FC0195
:100120000C9463030C94B5010C94B0010C94DE02A2
:100130000C94C7010C9406020C94EE010C94EA0195
:100140000C94F4010C94E0010C94DC010C94D601A5
:100150000C94800200000A0B02090C0D0E08070324
:10016000040100000000000000000000000000008A
:10017000000000000000000000000000000000007F
:10018000121110000000000000000000000000003C
:100190000000000000000000000000002200250018
:1001A00028002B002E003100340002010000050160
:1001B00008010B0100002100240027002A002D0067
:1001C0003000330001010000040107010A010505A8
:1001D0000505070508080808020202020A0A0808BD
:1001E00004040404010101010101010103030303EB
:1001F00003030303040707070C0C0C0C0C0C0C0C7A
:100200000202020206060606060606060B0B0B0B8A
:100210000B0B0B0B010210202008081020401020AF
:1002200040800201020108040201010204081020BA
:1002300040808040201008040201800402018040B8
:100240002010080402010804020101020408102021
:1002500040800102040810204080230611241FBEA4
:10026000CFEFD1E2DEBFCDBF00E00CBF12E0A0E0D7
:10027000B2E0E2E1F7E100E00BBF02C007900D92AF
:10028000AC34B107D9F723E0ACE4B2E001C01D9271
:10029000A032B207E1F711E0CEE2D1E000E006C003
:1002A00021970109802FFE010E94780BCD32D107E2
:1002B00080E00807A9F70E946D060C94870B0C9448
:1002C000000090E0FC01EC5EFD4F249182539E4FB4
:1002D000FC018491882399F090E0880F991FFC011C
:1002E000EC54FE4FA591B491FC01E656FE4F85916A
:1002F00094918FB7F894EC91E22BEC938FBF089513
:10030000282F30E0F901EC5AFE4F9491F901EC5E90
:10031000FD4F449122533E4FF9012491222309F4C9
:1003200035C0992311F191509231F8F4E92FF0E0A2
:100330008827E256FE4F8F4F0C94780BCF01D301E4
:10034000B001C701CB01B501D601DC01E001E60136
:10035000EA01EE01F401F801B501FC010202060216
:10036000809180008F7780938000E22FF0E0EE0F85
:10037000FF1FE656FE4FA591B4918FB7F894EC910C
:10038000611148C040954E234C938FBF08958091D2
:1003900080008F7DE8CF80918000877FE4CF84B597
:1003A0008F7784BDE2CF84B58F7DFBCF8091B00085
:1003B0008F778093B000D9CF8091B0008F7DF9CF37
:1003C000809190008F7780939000CFCF80919000A4
:1003D0008F7DF9CF80919000877FF5CF8091A0002D
:1003E0008F778093A000C1CF8091A0008F7DF9CF3F
:1003F0008091A000877FF5CF809120018F77809337
:100400002001B3CF809120018F7DF9CF8091200111
:10041000877FF5CF4E2BB8CF863308F086532091D7
:100420007B00982F9870277F922B90937B0087708A
:10043000806480937C0080917A00806480937A004D
:1004400080917A0086FDFCCF8091780090917900B0
:1004500008953FB7F8948091670290916802A09147
:100460006902B0916A0226B5A89B05C02F3F19F01A
:100470000196A11DB11D3FBFBA2FA92F982F882724
:10048000BC01CD01620F711D811D911D42E0660FFF
:10049000771F881F991F4A95D1F708958F929F92D1
:1004A000AF92BF92CF92DF92EF92FF924B015C012D
:1004B0000E9429026B017C010E9429026C197D09AE
:1004C0008E099F09683E734081059105A8F321E0DC
:1004D000821A9108A108B10888EEC80E83E0D81EE0
:1004E000E11CF11C81149104A104B10429F7FF90CF
:1004F000EF90DF90CF90BF90AF909F908F90089536
:10050000AF92BF92CF92DF92EF92FF920F931F9321
:10051000CF93DF936C017B018B01040F151FEB015F
:100520005E01AE18BF08C017D10759F06991D60116
:10053000ED91FC910190F081E02DC6011995892B78
:1005400079F7C501DF91CF911F910F91FF90EF9047
:10055000DF90CF90BF90AF900895FC01538D448DF4
:10056000252F30E0842F90E0821B930B541710F05E
:10057000CF96089501970895FC01918D828D98176B
:1005800061F0A28DAE0FBF2FB11D5D968C91928D43
:100590009F5F9F73928F90E008958FEF9FEF089574
:1005A000FC01918D828D981731F0828DE80FF11D3D
:1005B000858D90E008958FEF9FEF0895FC01918D58
:1005C000228D892F90E0805C9F4F821B91098F7351
:1005D000992708958BE692E00E94DE0221E0892BA4
:1005E00009F420E0822F0895FC01A48DA80FB92FF3
:1005F000B11DA35ABF4F2C91848D90E001968F734B
:100600009927848FA689B7892C93A089B1898C9169
:10061000837080648C93938D848D981306C00288B8
:10062000F389E02D80818F7D80830895EF92FF9282
:100630000F931F93CF93DF93EC0181E0888F9B8D05
:100640008C8D98131AC0E889F989808185FF15C0BF
:100650009FB7F894EE89FF896083E889F9898081E2
:100660008370806480839FBF81E090E0DF91CF91B1
:100670001F910F91FF90EF900895F62E0B8D10E0D3
:100680000F5F1F4F0F731127E02E8C8D8E110CC042
:100690000FB607FCFACFE889F989808185FFF5CF8D
:1006A000CE010E94F402F1CFEB8DEC0FFD2FF11D76
:1006B000E35AFF4FF0829FB7F8940B8FEA89FB89CA
:1006C00080818062CFCFCF93DF93EC01888D882328
:1006D000B9F0AA89BB89E889F9898C9185FD03C0A5
:1006E000808186FD0DC00FB607FCF7CF8C9185FF8A
:1006F000F2CF808185FFEDCFCE010E94F402E9CFD9
:10070000DF91CF91089580E090E0892B29F00E943D
:10071000EA0281110E94000080E090E0892B49F0FC
:1007200080E090E0892B29F00E94000081110E9456
:10073000000080E090E0892B49F080E090E0892B78
:1007400029F00E94000081110E94000080E090E0EA
:10075000892B49F080E090E0892B29F00E9400006D
:1007600081110C9400000895089590E080E00895B0
:10077000FC0101900020E9F73197AF01481B590BAC
:10078000BC0188E093E00C9480028F929F92AF921C
:10079000BF920F931F93CF93DF93CDB7DEB7A1978F
:1007A0000FB6F894DEBF0FBECDBF19A2423008F4D9
:1007B0004AE08E010F5D1F4F842E912CB12CA12C8D
:1007C000A50194010E947D09E62FB901CA01EA3012
:1007D000F4F4E05DD801EE938D01232B242B252B1F
:1007E00079F790E080E0109719F0CD010E94B803EE
:1007F000A1960FB6F894DEBF0FBECDBFDF91CF91AB
:100800001F910F91BF90AF909F908F900895E95CDA
:10081000E1CFCF93DF93EC0160E08E810E948001F5
:1008200061E08E810E94800160E08E810E948001E3
:100830008BE891E00197F1F7DF91CF910895CF9286
:10084000DF92EF92FF920F931F93CF93DF936C0190
:100850007C0187E0E80EF11CD0E0C0E0062F10E03C
:10086000B8010C2E02C0759567950A94E2F7617085
:10087000F70181917F010E9480012196C430D1054A
:1008800079F7C601DF91CF911F910F91FF90EF9003
:10089000DF90CF900C940904CF92DF92EF92FF92F9
:1008A0000F931F93CF93DF93EC01F62E642F8C816F
:1008B0000E9480018D818F3F19F060E00E948001CD
:1008C0000F2D10E08F8584FF25C06E0187E0C80ED4
:1008D000D11CF12CE12CB8010E2C02C07595679546
:1008E0000A94E2F76170F60181916F010E94800124
:1008F000FFEFEF1AFF0A88E0E816F10461F7CE0176
:10090000DF91CF911F910F91FF90EF90DF90CF90EB
:100910000C940904B80184E0759567958A95E1F710
:10092000CE010E941F046F2DCE01DF91CF911F9148
:100930000F91FF90EF90DF90CF900C941F0440E058
:10094000682F88E093E00C944C0481E00E949F049F
:100950008BE39FE10197F1F70895CF93DF93823006
:1009600029F49091170398609093170380931B03C9
:1009700010921C0380E480931D0380E180931E038A
:1009800080E580931F0380910C030E946101809198
:100990000D038F3F11F00E94610180910E030E94B0
:1009A0006101C8E0D3E09E012850334080911703D5
:1009B00084FD0AC084E090E02196281739073CF4B2
:1009C0008E810E946101EFCF88E090E0F5CF8BE34C
:1009D0009DE00197F1F760E080910C030E94800197
:1009E00060E080910E030E94800180910D038F3F93
:1009F00019F060E00E9480018091170384FD34C0EB
:100A000063E088E093E00E941F04CBE4D6E4CE01CB
:100A10000197F1F763E088E093E00E941F042197BB
:100A2000F1F763E088E093E00E941F0483E592E021
:100A30000197F1F762E088E093E00E941F04809143
:100A4000170380620E949F0484E0809318038CE067
:100A50000E949F040E94A50482E08093190386E00F
:100A6000DF91CF910C949F0480620E949F048BE4DD
:100A700096E40197F1F78091170380620E949F042A
:100A800083E592E00197F1F78091170380620E945D
:100A90009F04D5CF41E00E944C0481E090E008958E
:100AA000CF92DF92EF92FF926C01990FEE08FF0850
:100AB000F7FE16C041E06DE288E093E00E944C042E
:100AC00066277727CB016C197D098E099F094AE0BB
:100AD0000E94C5030196FF90EF90DF90CF9008959C
:100AE0004AE0C701B601FF90EF90DF90CF900C94E1
:100AF000C5031F920F920FB60F9211242F933F93AD
:100B00008F939F93AF93BF93809163029091640200
:100B1000A0916502B09166023091620223E0230F3A
:100B20002D3758F50196A11DB11D209362028093C7
:100B3000630290936402A0936502B0936602809171
:100B4000670290916802A0916902B0916A020196D1
:100B5000A11DB11D8093670290936802A093690262
:100B6000B0936A02BF91AF919F918F913F912F9166
:100B70000F900FBE0F901F90189526E8230F029636
:100B8000A11DB11DD2CF1F920F920FB60F9211244B
:100B90000BB60F922F933F934F935F936F937F9377
:100BA0008F939F93AF93BF93EF93FF938BE692E066
:100BB0000E94F402FF91EF91BF91AF919F918F91AD
:100BC0007F916F915F914F913F912F910F900BBE4D
:100BD0000F900FBE0F901F9018951F920F920FB697
:100BE0000F9211240BB60F922F938F939F93EF9335
:100BF000FF93E0917B02F0917C028081E091810281
:100C0000F091820282FD1DC09081809184028F5FED
:100C10008F7320918502821741F0E0918402F0E009
:100C2000E559FD4F958F80938402FF91EF919F913D
:100C30008F912F910F900BBE0F900FBE0F901F90B2
:100C400018958081F2CFEBE6F2E01382128288EEF3
:100C500093E0A0E0B0E084839583A683B78384E02B
:100C600092E09183808385EC90E09587848784EC83
:100C700090E09787868780EC90E0918B808B81EC69
:100C800090E0938B828B82EC90E0958B848B86EC4A
:100C900090E0978B868B118E128E138E148EE8E067
:100CA000F3E01382128286E192E09183808387E0F1
:100CB00084838FEF858386E0868385E0878384E065
:100CC000808783E0818782E0828713861486158679
:100CD0001686178681E00C94AD04789484B5826002
:100CE00084BD84B5816084BD85B5826085BD85B5D0
:100CF000816085BD80916E00816080936E0010924E
:100D000081008091810082608093810080918100C8
:100D10008160809381008091800081608093800059
:100D20008091B10084608093B1008091B0008160B7
:100D30008093B000809191008260809391008091B7
:100D400091008160809391008091900081608093F8
:100D500090008091A10082608093A1008091A10009
:100D600081608093A1008091A00081608093A000A9
:100D70008091210182608093210180912101816015
:100D800080932101809120018160809320018091D6
:100D90007A00846080937A0080917A0082608093E8
:100DA0007A0080917A00816080937A0080917A0045
:100DB000806880937A001092C10082E00E94AD04A6
:100DC000E0917B02F0917C0282E08083E0917702E7
:100DD000F09178021082E0917902F0917A028FEC22
:100DE000808310928302E0917F02F091800286E07E
:100DF0008083E0917D02F0917E028081806180831A
:100E0000E0917D02F0917E02808188608083E09194
:100E10007D02F0917E02808180688083E0917D0276
:100E2000F0917E0280818F7D80838DE00E94610140
:100E300088E00E94610186E10E94610187E10E94D1
:100E4000610189E00E94610188E10E9461018EE2F6
:100E50000E9461018DE10E9461018CE20E946101AA
:100E60008CE00E94610160E08CE00E9480018EE1D4
:100E700092E00E94B80368EE73E080E090E00E9488
:100E80004E020E94A50488248A9483E0982EA12C07
:100E9000B12C88E30E940C02BC01990F880B990BBE
:100EA0000E94510A2EE038E340E65CE30E94060B04
:100EB0002B013C0140925E0250925F026092600200
:100EC000709261028DE30E940C027C0190935D029E
:100ED00080935C028BE30E940C02BC01990F880B8B
:100EE000990B0E94510A2AE038E240E25CE30E943A
:100EF000060B609358027093590280935A029093A4
:100F00005B0287E30E940C02909357028093560283
:100F10008AE30E940C02BC01990F880B990B0E9476
:100F2000510A2AE038E240EA5BE30E94060B20E027
:100F300030E040E05FE30E94AE0920E030E048ECA2
:100F400052E40E94060B6093520270935302809306
:100F500054029093550289E30E940C02BC01990F40
:100F6000880B990B0E94510A2AE038E240EA5BE3C1
:100F70000E94060B20E030E040E05FE30E94AE09F3
:100F800020E030E048EC52E40E94060B60934E02F1
:100F900070934F0280935002909351028EE30E940F
:100FA0000C0224E630E0DC010E94800BA5019401D4
:100FB0000E945E0930934D0220934C0261E024367A
:100FC00031050CF060E08CE00E94800120E030E010
:100FD00040ED50E4C301B2010E94010B18160CF061
:100FE000C7C061E088E00E94800160E08DE00E945F
:100FF000800161E08EE20E94800161E08DE10E944B
:10100000800181E2E81683E0F8060CF4D0C061E0CC
:1010100087E10E94800160E086E10E94800120E07B
:1010200030E040EC50E46091580270915902809198
:101030005A0290915B020E941B0A682F661F662766
:10104000661F89E00E94800120E030E040EE51E41C
:101050006091520270915302809154029091550216
:101060000E94010BC1E018168CF020E030E040ED4A
:1010700051E460914E0270914F0280915002909124
:1010800051020E94010B18160CF0C0E06C2F88E191
:101090000E948001E0905602F090570261E081E9E1
:1010A000E81681E0F8060CF460E08CE20E94800112
:1010B00061E081E9E81681E0F8060CF060E08DE17E
:1010C0000E9480010E94A504E1E080911B03811130
:1010D000E0E0E195F0E0E85FFC4F848980680E94E1
:1010E0009F048FE292E00E94B803C0905E02D0900D
:1010F0005F02E0906002F0906102A7019601C701D3
:10110000B6010E94730B882309F45EC083E392E06A
:101110000E94B8038FE392E00E94B80380915C02C2
:1011200090915D020E945005E0911B03E23008F0AF
:10113000C3C0E150F0E0E85FFC4F848980680E9402
:101140009F0485E492E00E94B80380914C02909144
:101150004D020E94500589E492E00E94B8036CE2BF
:1011600071E080E090E00E944E020E94830391CEE5
:1011700020E030E040EB50E4C301B2010E941B0AC2
:1011800087FF07C061E08DE00E94800160E088E099
:101190002ECF60E08DE00E94800160E088E00E9438
:1011A000800160E08EE20E94800160E027CF61E074
:1011B00084EFE81681E0F8060CF060E086E10E941A
:1011C000800160E087E129CF26013701E89477F8B4
:1011D0002FEF3FEF4FE75FE7C301B2010E94730BB0
:1011E00081110DC02FEF3FEF4FE75FE7C301B20161
:1011F0000E941B0A18161CF487E392E089CF2FEF98
:101200003FEF4FE75FE4C701B6010E94010B1816DC
:101210001CF48BE392E07CCF2FEF3FEF4FE75FECC6
:10122000C701B6010E941B0A87FDF3CF20E030E022
:10123000A901C701B6010E941B0A87FF0AC041E04D
:101240006DE288E093E00E944C04F7FAF094F7F81E
:10125000F0942DEC3CEC4CE45DE3C701B6010E9438
:10126000AF092B013C010E94200A6B017C010E9406
:101270004F0A9B01AC01C301B2010E94AE092B01D0
:101280003C014AE0C701B6010E94C50341E06EE29D
:1012900088E093E00E944C0420E030E040E251E41A
:1012A000C301B2010E94060B0E94200A90E080E078
:1012B0004AE00E94C5032ECFE1E03CCF052E97FB0C
:1012C0001EF400940E94750957FD07D00E947D0905
:1012D00007FC03D04EF40C94750950954095309559
:1012E00021953F4F4F4F5F4F089590958095709592
:1012F00061957F4F8F4F9F4F0895A1E21A2EAA1B31
:10130000BB1BFD010DC0AA1FBB1FEE1FFF1FA217B5
:10131000B307E407F50720F0A21BB30BE40BF50BB2
:10132000661F771F881F991F1A9469F7609570953B
:10133000809590959B01AC01BD01CF010895A29FBE
:10134000B001B39FC001A39F700D811D1124911D99
:10135000B29F700D811D1124911D08955058BB2717
:10136000AA270E94C6090C94C70A0E94B90A38F03D
:101370000E94C00A20F039F49F3F19F426F40C941F
:10138000B60A0EF4E095E7FB0C94B00AE92F0E9430
:10139000D80A58F3BA17620773078407950720F035
:1013A00079F4A6F50C94FA0A0EF4E0950B2EBA2FF8
:1013B000A02D0B01B90190010C01CA01A00111245B
:1013C000FF27591B99F0593F50F4503E68F11A1607
:1013D000F040A22F232F342F4427585FF3CF469598
:1013E00037952795A795F0405395C9F77EF41F16BA
:1013F000BA0B620B730B840BBAF09150A1F0FF0F84
:10140000BB1F661F771F881FC2F70EC0BA0F621F6F
:10141000731F841F48F4879577956795B795F7955F
:101420009E3F08F0B0CF9395880F08F09927EE0FF4
:101430009795879508950E948C0A08F481E0089595
:101440000E94E00A88F09F5798F0B92F9927B7516A
:10145000B0F0E1F0660F771F881F991F1AF0BA9558
:10146000C9F714C0B13091F00E94FA0AB1E00895B2
:101470000C94FA0A672F782F8827B85F39F0B93FA4
:10148000CCF3869577956795B395D9F73EF490950B
:101490008095709561957F4F8F4F9F4F0895E89489
:1014A00009C097FB3EF490958095709561957F4FAC
:1014B0008F4F9F4F9923A9F0F92F96E9BB2793955A
:1014C000F695879577956795B795F111F8CFFAF46A
:1014D000BB0F11F460FF1BC06F5F7F4F8F4F9F4F9B
:1014E00016C0882311F096E911C0772321F09EE8F9
:1014F000872F762F05C0662371F096E8862F70E05F
:1015000060E02AF09A95660F771F881FDAF7880F38
:101510009695879597F90895990F0008550FAA0B8E
:10152000E0E8FEEF16161706E807F907C0F01216F6
:101530001306E407F50798F0621B730B840B950BF9
:1015400039F40A2661F0232B242B252B21F408954E
:101550000A2609F4A140A6958FEF811D811D0895EB
:1015600097F99F6780E870E060E008959FEF80EC56
:10157000089500240A9416161706180609060895F9
:1015800000240A9412161306140605060895092E5F
:101590000394000C11F4882352F0BB0F40F4BF2BCE
:1015A00011F460FF04C06F5F7F4F8F4F9F4F08950E
:1015B00057FD9058440F551F59F05F3F71F0479504
:1015C000880F97FB991F61F09F3F79F087950895E9
:1015D000121613061406551FF2CF4695F1DF08C008
:1015E000161617061806991FF1CF86957105610525
:1015F00008940895E894BB2766277727CB0197F9CD
:1016000008950E948C0A08F48FEF08950E94190B28
:101610000C94C70A0E94B90A38F00E94C00A20F050
:10162000952311F00C94B00A0C94B60A11240C9472
:10163000FB0A0E94D80A70F3959FC1F3950F50E002
:10164000551F629FF001729FBB27F00DB11D639F74
:10165000AA27F00DB11DAA1F649F6627B00DA11D1A
:10166000661F829F2227B00DA11D621F739FB00DC0
:10167000A11D621F839FA00D611D221F749F332730
:10168000A00D611D231F849F600D211D822F762FC9
:101690006A2F11249F5750409AF0F1F088234AF0A6
:1016A000EE0FFF1FBB1F661F771F881F9150504012
:1016B000A9F79E3F510580F00C94B00A0C94FB0AE8
:1016C0005F3FE4F3983ED4F3869577956795B79599
:1016D000F795E7959F5FC1F7FE2B880F911D9695B3
:1016E000879597F908950E948C0A880B990B0895A5
:1016F000EE0FFF1F881F8BBF0790F691E02D199406
:101700000E949F09B7FF0895821B930B0895F894D8
:02171000FFCF09
:101712000000000016038002AD026303DE02BC0279
:10172200D002000000004A058002B503B403536DE5
:1017320061727420487964726F706F6E69630070B1
:10174200483A006E616E00696E66006F7666002030
:0C1752005444533A00574C3A0025000064
:00000001FF
